{
  "contractName": "NewNFTMintToken",
  "abi": [
    {
      "inputs": [],
      "stateMutability": "nonpayable",
      "type": "constructor"
    },
    {
      "anonymous": false,
      "inputs": [
        {
          "indexed": true,
          "internalType": "address",
          "name": "owner",
          "type": "address"
        },
        {
          "indexed": true,
          "internalType": "address",
          "name": "approved",
          "type": "address"
        },
        {
          "indexed": true,
          "internalType": "uint256",
          "name": "tokenId",
          "type": "uint256"
        }
      ],
      "name": "Approval",
      "type": "event"
    },
    {
      "anonymous": false,
      "inputs": [
        {
          "indexed": true,
          "internalType": "address",
          "name": "owner",
          "type": "address"
        },
        {
          "indexed": true,
          "internalType": "address",
          "name": "operator",
          "type": "address"
        },
        {
          "indexed": false,
          "internalType": "bool",
          "name": "approved",
          "type": "bool"
        }
      ],
      "name": "ApprovalForAll",
      "type": "event"
    },
    {
      "anonymous": false,
      "inputs": [
        {
          "indexed": true,
          "internalType": "address",
          "name": "previousOwner",
          "type": "address"
        },
        {
          "indexed": true,
          "internalType": "address",
          "name": "newOwner",
          "type": "address"
        }
      ],
      "name": "OwnershipTransferred",
      "type": "event"
    },
    {
      "anonymous": false,
      "inputs": [
        {
          "indexed": true,
          "internalType": "address",
          "name": "from",
          "type": "address"
        },
        {
          "indexed": true,
          "internalType": "address",
          "name": "to",
          "type": "address"
        },
        {
          "indexed": true,
          "internalType": "uint256",
          "name": "tokenId",
          "type": "uint256"
        }
      ],
      "name": "Transfer",
      "type": "event"
    },
    {
      "inputs": [
        {
          "internalType": "address",
          "name": "to",
          "type": "address"
        },
        {
          "internalType": "uint256",
          "name": "tokenId",
          "type": "uint256"
        }
      ],
      "name": "approve",
      "outputs": [],
      "stateMutability": "nonpayable",
      "type": "function"
    },
    {
      "inputs": [
        {
          "internalType": "address",
          "name": "owner",
          "type": "address"
        }
      ],
      "name": "balanceOf",
      "outputs": [
        {
          "internalType": "uint256",
          "name": "",
          "type": "uint256"
        }
      ],
      "stateMutability": "view",
      "type": "function",
      "constant": true
    },
    {
      "inputs": [
        {
          "internalType": "uint256",
          "name": "tokenId",
          "type": "uint256"
        }
      ],
      "name": "getApproved",
      "outputs": [
        {
          "internalType": "address",
          "name": "",
          "type": "address"
        }
      ],
      "stateMutability": "view",
      "type": "function",
      "constant": true
    },
    {
      "inputs": [
        {
          "internalType": "address",
          "name": "owner",
          "type": "address"
        },
        {
          "internalType": "address",
          "name": "operator",
          "type": "address"
        }
      ],
      "name": "isApprovedForAll",
      "outputs": [
        {
          "internalType": "bool",
          "name": "",
          "type": "bool"
        }
      ],
      "stateMutability": "view",
      "type": "function",
      "constant": true
    },
    {
      "inputs": [],
      "name": "name",
      "outputs": [
        {
          "internalType": "string",
          "name": "",
          "type": "string"
        }
      ],
      "stateMutability": "view",
      "type": "function",
      "constant": true
    },
    {
      "inputs": [],
      "name": "nextTokenId",
      "outputs": [
        {
          "internalType": "uint256",
          "name": "",
          "type": "uint256"
        }
      ],
      "stateMutability": "view",
      "type": "function",
      "constant": true
    },
    {
      "inputs": [],
      "name": "owner",
      "outputs": [
        {
          "internalType": "address",
          "name": "",
          "type": "address"
        }
      ],
      "stateMutability": "view",
      "type": "function",
      "constant": true
    },
    {
      "inputs": [
        {
          "internalType": "uint256",
          "name": "tokenId",
          "type": "uint256"
        }
      ],
      "name": "ownerOf",
      "outputs": [
        {
          "internalType": "address",
          "name": "",
          "type": "address"
        }
      ],
      "stateMutability": "view",
      "type": "function",
      "constant": true
    },
    {
      "inputs": [],
      "name": "renounceOwnership",
      "outputs": [],
      "stateMutability": "nonpayable",
      "type": "function"
    },
    {
      "inputs": [
        {
          "internalType": "address",
          "name": "from",
          "type": "address"
        },
        {
          "internalType": "address",
          "name": "to",
          "type": "address"
        },
        {
          "internalType": "uint256",
          "name": "tokenId",
          "type": "uint256"
        }
      ],
      "name": "safeTransferFrom",
      "outputs": [],
      "stateMutability": "nonpayable",
      "type": "function"
    },
    {
      "inputs": [
        {
          "internalType": "address",
          "name": "from",
          "type": "address"
        },
        {
          "internalType": "address",
          "name": "to",
          "type": "address"
        },
        {
          "internalType": "uint256",
          "name": "tokenId",
          "type": "uint256"
        },
        {
          "internalType": "bytes",
          "name": "data",
          "type": "bytes"
        }
      ],
      "name": "safeTransferFrom",
      "outputs": [],
      "stateMutability": "nonpayable",
      "type": "function"
    },
    {
      "inputs": [
        {
          "internalType": "address",
          "name": "operator",
          "type": "address"
        },
        {
          "internalType": "bool",
          "name": "approved",
          "type": "bool"
        }
      ],
      "name": "setApprovalForAll",
      "outputs": [],
      "stateMutability": "nonpayable",
      "type": "function"
    },
    {
      "inputs": [
        {
          "internalType": "bytes4",
          "name": "interfaceId",
          "type": "bytes4"
        }
      ],
      "name": "supportsInterface",
      "outputs": [
        {
          "internalType": "bool",
          "name": "",
          "type": "bool"
        }
      ],
      "stateMutability": "view",
      "type": "function",
      "constant": true
    },
    {
      "inputs": [],
      "name": "symbol",
      "outputs": [
        {
          "internalType": "string",
          "name": "",
          "type": "string"
        }
      ],
      "stateMutability": "view",
      "type": "function",
      "constant": true
    },
    {
      "inputs": [
        {
          "internalType": "uint256",
          "name": "index",
          "type": "uint256"
        }
      ],
      "name": "tokenByIndex",
      "outputs": [
        {
          "internalType": "uint256",
          "name": "",
          "type": "uint256"
        }
      ],
      "stateMutability": "view",
      "type": "function",
      "constant": true
    },
    {
      "inputs": [
        {
          "internalType": "address",
          "name": "owner",
          "type": "address"
        },
        {
          "internalType": "uint256",
          "name": "index",
          "type": "uint256"
        }
      ],
      "name": "tokenOfOwnerByIndex",
      "outputs": [
        {
          "internalType": "uint256",
          "name": "",
          "type": "uint256"
        }
      ],
      "stateMutability": "view",
      "type": "function",
      "constant": true
    },
    {
      "inputs": [],
      "name": "tokenSupply",
      "outputs": [
        {
          "internalType": "uint256",
          "name": "",
          "type": "uint256"
        }
      ],
      "stateMutability": "view",
      "type": "function",
      "constant": true
    },
    {
      "inputs": [
        {
          "internalType": "uint256",
          "name": "tokenId",
          "type": "uint256"
        }
      ],
      "name": "tokenURI",
      "outputs": [
        {
          "internalType": "string",
          "name": "",
          "type": "string"
        }
      ],
      "stateMutability": "view",
      "type": "function",
      "constant": true
    },
    {
      "inputs": [],
      "name": "totalSupply",
      "outputs": [
        {
          "internalType": "uint256",
          "name": "",
          "type": "uint256"
        }
      ],
      "stateMutability": "view",
      "type": "function",
      "constant": true
    },
    {
      "inputs": [
        {
          "internalType": "address",
          "name": "from",
          "type": "address"
        },
        {
          "internalType": "address",
          "name": "to",
          "type": "address"
        },
        {
          "internalType": "uint256",
          "name": "tokenId",
          "type": "uint256"
        }
      ],
      "name": "transferFrom",
      "outputs": [],
      "stateMutability": "nonpayable",
      "type": "function"
    },
    {
      "inputs": [
        {
          "internalType": "address",
          "name": "newOwner",
          "type": "address"
        }
      ],
      "name": "transferOwnership",
      "outputs": [],
      "stateMutability": "nonpayable",
      "type": "function"
    },
    {
      "inputs": [
        {
          "internalType": "uint256",
          "name": "supply",
          "type": "uint256"
        }
      ],
      "name": "mintTokens",
      "outputs": [],
      "stateMutability": "nonpayable",
      "type": "function"
    },
    {
      "inputs": [],
      "name": "purchaseTicket",
      "outputs": [],
      "stateMutability": "payable",
      "type": "function",
      "payable": true
    },
    {
      "inputs": [
        {
          "internalType": "address",
          "name": "user",
          "type": "address"
        }
      ],
      "name": "ticketsOfOwner",
      "outputs": [
        {
          "internalType": "uint256[]",
          "name": "",
          "type": "uint256[]"
        }
      ],
      "stateMutability": "view",
      "type": "function",
      "constant": true
    },
    {
      "inputs": [],
      "name": "withdraw",
      "outputs": [],
      "stateMutability": "nonpayable",
      "type": "function"
    }
  ],
  "bytecode": "0x6080604052662386f26fc10000600b556001600d553480156200002157600080fd5b50604080518082018252600881526727232a2a37b5b2b760c11b602080830191825283518085019094526002845261139560f21b9084015281519192916200006c9160009162000100565b5080516200008290600190602084019062000100565b5050506200009f62000099620000aa60201b60201c565b620000ae565b600a600c55620001e3565b3390565b600a80546001600160a01b038381166001600160a01b0319831681179093556040519116919082907f8be0079c531659141344cd1fd0a4f28419497f9722a3daafe3b4186f6b6457e090600090a35050565b8280546200010e90620001a6565b90600052602060002090601f0160209004810192826200013257600085556200017d565b82601f106200014d57805160ff19168380011785556200017d565b828001600101855582156200017d579182015b828111156200017d57825182559160200191906001019062000160565b506200018b9291506200018f565b5090565b5b808211156200018b576000815560010162000190565b600181811c90821680620001bb57607f821691505b60208210811415620001dd57634e487b7160e01b600052602260045260246000fd5b50919050565b611d8180620001f36000396000f3fe6080604052600436106101665760003560e01c806370a08231116100d157806397304ced1161008a578063c87b56dd11610064578063c87b56dd146103ec578063cd4faf831461040c578063e985e9c514610439578063f2fde38b1461048257600080fd5b806397304ced1461038c578063a22cb465146103ac578063b88d4fde146103cc57600080fd5b806370a08231146102f8578063715018a61461031857806375794a3c1461032d5780637824407f146103435780638da5cb5b1461035957806395d89b411461037757600080fd5b806323b872dd1161012357806323b872dd146102435780632f745c59146102635780633ccfd60b1461028357806342842e0e146102985780634f6ccce7146102b85780636352211e146102d857600080fd5b806301ffc9a71461016b57806306fdde03146101a0578063081812fc146101c2578063095ea7b3146101fa57806318160ddd1461021c57806321846c761461023b575b600080fd5b34801561017757600080fd5b5061018b610186366004611834565b6104a2565b60405190151581526020015b60405180910390f35b3480156101ac57600080fd5b506101b56104cd565b60405161019791906118a9565b3480156101ce57600080fd5b506101e26101dd3660046118bc565b61055f565b6040516001600160a01b039091168152602001610197565b34801561020657600080fd5b5061021a6102153660046118f1565b610586565b005b34801561022857600080fd5b506008545b604051908152602001610197565b61021a6106a1565b34801561024f57600080fd5b5061021a61025e36600461191b565b610752565b34801561026f57600080fd5b5061022d61027e3660046118f1565b610783565b34801561028f57600080fd5b5061021a610819565b3480156102a457600080fd5b5061021a6102b336600461191b565b61085d565b3480156102c457600080fd5b5061022d6102d33660046118bc565b610878565b3480156102e457600080fd5b506101e26102f33660046118bc565b61090b565b34801561030457600080fd5b5061022d610313366004611957565b61096b565b34801561032457600080fd5b5061021a6109f1565b34801561033957600080fd5b5061022d600d5481565b34801561034f57600080fd5b5061022d600c5481565b34801561036557600080fd5b50600a546001600160a01b03166101e2565b34801561038357600080fd5b506101b5610a05565b34801561039857600080fd5b5061021a6103a73660046118bc565b610a14565b3480156103b857600080fd5b5061021a6103c7366004611972565b610a7b565b3480156103d857600080fd5b5061021a6103e73660046119c4565b610a8a565b3480156103f857600080fd5b506101b56104073660046118bc565b610ac2565b34801561041857600080fd5b5061042c610427366004611957565b610b36565b6040516101979190611aa0565b34801561044557600080fd5b5061018b610454366004611ae4565b6001600160a01b03918216600090815260056020908152604080832093909416825291909152205460ff1690565b34801561048e57600080fd5b5061021a61049d366004611957565b610bd8565b60006001600160e01b0319821663780e9d6360e01b14806104c757506104c782610c4e565b92915050565b6060600080546104dc90611b17565b80601f016020809104026020016040519081016040528092919081815260200182805461050890611b17565b80156105555780601f1061052a57610100808354040283529160200191610555565b820191906000526020600020905b81548152906001019060200180831161053857829003601f168201915b5050505050905090565b600061056a82610c9e565b506000908152600460205260409020546001600160a01b031690565b60006105918261090b565b9050806001600160a01b0316836001600160a01b031614156106045760405162461bcd60e51b815260206004820152602160248201527f4552433732313a20617070726f76616c20746f2063757272656e74206f776e656044820152603960f91b60648201526084015b60405180910390fd5b336001600160a01b038216148061062057506106208133610454565b6106925760405162461bcd60e51b815260206004820152603d60248201527f4552433732313a20617070726f76652063616c6c6572206973206e6f7420746f60448201527f6b656e206f776e6572206f7220617070726f76656420666f7220616c6c00000060648201526084016105fb565b61069c8383610cfd565b505050565b600b5434146106e85760405162461bcd60e51b8152602060048201526013602482015272125b98dbdc9c995d0811551208185b5bdd5b9d606a1b60448201526064016105fb565b600c54600d54111561072f5760405162461bcd60e51b815260206004820152601060248201526f105b1b081d1a58dad95d1cc81cdbdb1960821b60448201526064016105fb565b61073b33600d54610d6b565b600d805490600061074b83611b68565b9190505550565b61075c3382610d85565b6107785760405162461bcd60e51b81526004016105fb90611b83565b61069c838383610e04565b600061078e8361096b565b82106107f05760405162461bcd60e51b815260206004820152602b60248201527f455243373231456e756d657261626c653a206f776e657220696e646578206f7560448201526a74206f6620626f756e647360a81b60648201526084016105fb565b506001600160a01b03919091166000908152600660209081526040808320938352929052205490565b610821610f75565b600a546040516001600160a01b03909116904780156108fc02916000818181858888f1935050505015801561085a573d6000803e3d6000fd5b50565b61069c83838360405180602001604052806000815250610a8a565b600061088360085490565b82106108e65760405162461bcd60e51b815260206004820152602c60248201527f455243373231456e756d657261626c653a20676c6f62616c20696e646578206f60448201526b7574206f6620626f756e647360a01b60648201526084016105fb565b600882815481106108f9576108f9611bd0565b90600052602060002001549050919050565b6000818152600260205260408120546001600160a01b0316806104c75760405162461bcd60e51b8152602060048201526018602482015277115490cdcc8c4e881a5b9d985b1a59081d1bdad95b88125160421b60448201526064016105fb565b60006001600160a01b0382166109d55760405162461bcd60e51b815260206004820152602960248201527f4552433732313a2061646472657373207a65726f206973206e6f7420612076616044820152683634b21037bbb732b960b91b60648201526084016105fb565b506001600160a01b031660009081526003602052604090205490565b6109f9610f75565b610a036000610fcf565b565b6060600180546104dc90611b17565b610a1c610f75565b60008111610a615760405162461bcd60e51b81526020600482015260126024820152716d757374206164642061746c65617374203160701b60448201526064016105fb565b80600c6000828254610a739190611be6565b909155505050565b610a86338383611021565b5050565b610a943383610d85565b610ab05760405162461bcd60e51b81526004016105fb90611b83565b610abc848484846110f0565b50505050565b6060610acd82610c9e565b6000610ae460408051602081019091526000815290565b90506000815111610b045760405180602001604052806000815250610b2f565b80610b0e84611123565b604051602001610b1f929190611bfe565b6040516020818303038152906040525b9392505050565b60606000610b438361096b565b905060008167ffffffffffffffff811115610b6057610b606119ae565b604051908082528060200260200182016040528015610b89578160200160208202803683370190505b50905060005b82811015610bd057610ba18582610783565b828281518110610bb357610bb3611bd0565b602090810291909101015280610bc881611b68565b915050610b8f565b509392505050565b610be0610f75565b6001600160a01b038116610c455760405162461bcd60e51b815260206004820152602660248201527f4f776e61626c653a206e6577206f776e657220697320746865207a65726f206160448201526564647265737360d01b60648201526084016105fb565b61085a81610fcf565b60006001600160e01b031982166380ac58cd60e01b1480610c7f57506001600160e01b03198216635b5e139f60e01b145b806104c757506301ffc9a760e01b6001600160e01b03198316146104c7565b6000818152600260205260409020546001600160a01b031661085a5760405162461bcd60e51b8152602060048201526018602482015277115490cdcc8c4e881a5b9d985b1a59081d1bdad95b88125160421b60448201526064016105fb565b600081815260046020526040902080546001600160a01b0319166001600160a01b0384169081179091558190610d328261090b565b6001600160a01b03167f8c5be1e5ebec7d5bd14f71427d1e84f3dd0314c0f7b2291e5b200ac8c7c3b92560405160405180910390a45050565b610a868282604051806020016040528060008152506111b8565b600080610d918361090b565b9050806001600160a01b0316846001600160a01b03161480610dd857506001600160a01b0380821660009081526005602090815260408083209388168352929052205460ff165b80610dfc5750836001600160a01b0316610df18461055f565b6001600160a01b0316145b949350505050565b826001600160a01b0316610e178261090b565b6001600160a01b031614610e3d5760405162461bcd60e51b81526004016105fb90611c2d565b6001600160a01b038216610e9f5760405162461bcd60e51b8152602060048201526024808201527f4552433732313a207472616e7366657220746f20746865207a65726f206164646044820152637265737360e01b60648201526084016105fb565b610eac83838360016111eb565b826001600160a01b0316610ebf8261090b565b6001600160a01b031614610ee55760405162461bcd60e51b81526004016105fb90611c2d565b600081815260046020908152604080832080546001600160a01b03199081169091556001600160a01b0387811680865260038552838620805460001901905590871680865283862080546001019055868652600290945282852080549092168417909155905184937fddf252ad1be2c89b69c2b068fc378daa952ba7f163c4a11628f55a4df523b3ef91a4505050565b600a546001600160a01b03163314610a035760405162461bcd60e51b815260206004820181905260248201527f4f776e61626c653a2063616c6c6572206973206e6f7420746865206f776e657260448201526064016105fb565b600a80546001600160a01b038381166001600160a01b0319831681179093556040519116919082907f8be0079c531659141344cd1fd0a4f28419497f9722a3daafe3b4186f6b6457e090600090a35050565b816001600160a01b0316836001600160a01b031614156110835760405162461bcd60e51b815260206004820152601960248201527f4552433732313a20617070726f766520746f2063616c6c65720000000000000060448201526064016105fb565b6001600160a01b03838116600081815260056020908152604080832094871680845294825291829020805460ff191686151590811790915591519182527f17307eab39ab6107e8899845ad3d59bd9653f200f220920489ca2b5937696c31910160405180910390a3505050565b6110fb848484610e04565b6111078484848461131f565b610abc5760405162461bcd60e51b81526004016105fb90611c72565b606060006111308361141d565b600101905060008167ffffffffffffffff811115611150576111506119ae565b6040519080825280601f01601f19166020018201604052801561117a576020820181803683370190505b5090508181016020015b600019016f181899199a1a9b1b9c1cb0b131b232b360811b600a86061a8153600a85049450846111b357610bd0565b611184565b6111c283836114f5565b6111cf600084848461131f565b61069c5760405162461bcd60e51b81526004016105fb90611c72565b600181111561125a5760405162461bcd60e51b815260206004820152603560248201527f455243373231456e756d657261626c653a20636f6e7365637574697665207472604482015274185b9cd9995c9cc81b9bdd081cdd5c1c1bdc9d1959605a1b60648201526084016105fb565b816001600160a01b0385166112b6576112b181600880546000838152600960205260408120829055600182018355919091527ff3f7a9fe364faab93b216da50a3214154f22a0a2b415b23a84c8169e8b636ee30155565b6112d9565b836001600160a01b0316856001600160a01b0316146112d9576112d9858261168e565b6001600160a01b0384166112f5576112f08161172b565b611318565b846001600160a01b0316846001600160a01b0316146113185761131884826117da565b5050505050565b60006001600160a01b0384163b1561141257604051630a85bd0160e11b81526001600160a01b0385169063150b7a0290611363903390899088908890600401611cc4565b6020604051808303816000875af192505050801561139e575060408051601f3d908101601f1916820190925261139b91810190611d01565b60015b6113f8573d8080156113cc576040519150601f19603f3d011682016040523d82523d6000602084013e6113d1565b606091505b5080516113f05760405162461bcd60e51b81526004016105fb90611c72565b805181602001fd5b6001600160e01b031916630a85bd0160e11b149050610dfc565b506001949350505050565b60008072184f03e93ff9f4daa797ed6e38ed64bf6a1f0160401b831061145c5772184f03e93ff9f4daa797ed6e38ed64bf6a1f0160401b830492506040015b6d04ee2d6d415b85acef81000000008310611488576d04ee2d6d415b85acef8100000000830492506020015b662386f26fc1000083106114a657662386f26fc10000830492506010015b6305f5e10083106114be576305f5e100830492506008015b61271083106114d257612710830492506004015b606483106114e4576064830492506002015b600a83106104c75760010192915050565b6001600160a01b03821661154b5760405162461bcd60e51b815260206004820181905260248201527f4552433732313a206d696e7420746f20746865207a65726f206164647265737360448201526064016105fb565b6000818152600260205260409020546001600160a01b0316156115b05760405162461bcd60e51b815260206004820152601c60248201527f4552433732313a20746f6b656e20616c7265616479206d696e7465640000000060448201526064016105fb565b6115be6000838360016111eb565b6000818152600260205260409020546001600160a01b0316156116235760405162461bcd60e51b815260206004820152601c60248201527f4552433732313a20746f6b656e20616c7265616479206d696e7465640000000060448201526064016105fb565b6001600160a01b038216600081815260036020908152604080832080546001019055848352600290915280822080546001600160a01b0319168417905551839291907fddf252ad1be2c89b69c2b068fc378daa952ba7f163c4a11628f55a4df523b3ef908290a45050565b6000600161169b8461096b565b6116a59190611d1e565b6000838152600760205260409020549091508082146116f8576001600160a01b03841660009081526006602090815260408083208584528252808320548484528184208190558352600790915290208190555b5060009182526007602090815260408084208490556001600160a01b039094168352600681528383209183525290812055565b60085460009061173d90600190611d1e565b6000838152600960205260408120546008805493945090928490811061176557611765611bd0565b90600052602060002001549050806008838154811061178657611786611bd0565b60009182526020808320909101929092558281526009909152604080822084905585825281205560088054806117be576117be611d35565b6001900381819060005260206000200160009055905550505050565b60006117e58361096b565b6001600160a01b039093166000908152600660209081526040808320868452825280832085905593825260079052919091209190915550565b6001600160e01b03198116811461085a57600080fd5b60006020828403121561184657600080fd5b8135610b2f8161181e565b60005b8381101561186c578181015183820152602001611854565b83811115610abc5750506000910152565b60008151808452611895816020860160208601611851565b601f01601f19169290920160200192915050565b602081526000610b2f602083018461187d565b6000602082840312156118ce57600080fd5b5035919050565b80356001600160a01b03811681146118ec57600080fd5b919050565b6000806040838503121561190457600080fd5b61190d836118d5565b946020939093013593505050565b60008060006060848603121561193057600080fd5b611939846118d5565b9250611947602085016118d5565b9150604084013590509250925092565b60006020828403121561196957600080fd5b610b2f826118d5565b6000806040838503121561198557600080fd5b61198e836118d5565b9150602083013580151581146119a357600080fd5b809150509250929050565b634e487b7160e01b600052604160045260246000fd5b600080600080608085870312156119da57600080fd5b6119e3856118d5565b93506119f1602086016118d5565b925060408501359150606085013567ffffffffffffffff80821115611a1557600080fd5b818701915087601f830112611a2957600080fd5b813581811115611a3b57611a3b6119ae565b604051601f8201601f19908116603f01168101908382118183101715611a6357611a636119ae565b816040528281528a6020848701011115611a7c57600080fd5b82602086016020830137600060208483010152809550505050505092959194509250565b6020808252825182820181905260009190848201906040850190845b81811015611ad857835183529284019291840191600101611abc565b50909695505050505050565b60008060408385031215611af757600080fd5b611b00836118d5565b9150611b0e602084016118d5565b90509250929050565b600181811c90821680611b2b57607f821691505b60208210811415611b4c57634e487b7160e01b600052602260045260246000fd5b50919050565b634e487b7160e01b600052601160045260246000fd5b6000600019821415611b7c57611b7c611b52565b5060010190565b6020808252602d908201527f4552433732313a2063616c6c6572206973206e6f7420746f6b656e206f776e6560408201526c1c881bdc88185c1c1c9bdd9959609a1b606082015260800190565b634e487b7160e01b600052603260045260246000fd5b60008219821115611bf957611bf9611b52565b500190565b60008351611c10818460208801611851565b835190830190611c24818360208801611851565b01949350505050565b60208082526025908201527f4552433732313a207472616e736665722066726f6d20696e636f72726563742060408201526437bbb732b960d91b606082015260800190565b60208082526032908201527f4552433732313a207472616e7366657220746f206e6f6e20455243373231526560408201527131b2b4bb32b91034b6b83632b6b2b73a32b960711b606082015260800190565b6001600160a01b0385811682528416602082015260408101839052608060608201819052600090611cf79083018461187d565b9695505050505050565b600060208284031215611d1357600080fd5b8151610b2f8161181e565b600082821015611d3057611d30611b52565b500390565b634e487b7160e01b600052603160045260246000fdfea264697066735822122066f39ea2b8fa87d3547e4f1330f751df0f66aa598a7417d00e9897237ad993a564736f6c634300080a0033",
  "immutableReferences": {},
  "source": "//SPDX-License-Identifier: UNLICENSED\r\n\r\npragma solidity ^0.8.10;\r\n\r\nimport \"@openzeppelin/contracts/token/ERC721/extensions/ERC721Enumerable.sol\";\r\nimport \"@openzeppelin/contracts/access/Ownable.sol\";\r\n\r\ncontract NewNFTMintToken is ERC721Enumerable, Ownable {\r\n\r\n    uint256 tokenPrice = 0.01 ether;\r\n    uint256 public tokenSupply;\r\n    uint256 public nextTokenId = 1;\r\n\r\n    constructor() ERC721(\"NFTToken\", \"NT\") {\r\n        tokenSupply = 10;\r\n    }\r\n\r\n    function mintTokens(uint256 supply) public onlyOwner {\r\n        require(supply > 0, \"must add atleast 1\");\r\n        tokenSupply += supply;\r\n    }\r\n\r\n    function purchaseTicket() public payable {\r\n        require(msg.value == tokenPrice, \"Incorret ETH amount\");\r\n        require(nextTokenId <= tokenSupply, \"All tickets sold\");\r\n\r\n        _safeMint(msg.sender, nextTokenId);\r\n        nextTokenId++;\r\n    }\r\n\r\n    function ticketsOfOwner(address user) public view returns(uint256[] memory) {\r\n        uint256 count = balanceOf(user);\r\n        uint256[] memory ids = new uint256[](count);\r\n\r\n        for(uint i = 0; i < count; i++) {\r\n            ids[i] = tokenOfOwnerByIndex(user, i);\r\n        }\r\n\r\n        return ids;\r\n    }\r\n\r\n    function withdraw() public onlyOwner {\r\n        payable(owner()).transfer(address(this).balance);\r\n    }\r\n\r\n}",
  "sourcePath": "D:\\DAPPs\\First-NFT\\contracts\\NewNFTMintToken.sol",
  "compiler": {
    "name": "solc",
    "version": "0.8.10+commit.fc410830.Emscripten.clang"
  },
  "schemaVersion": "3.4.16",
  "updatedAt": "2025-04-25T20:57:37.022Z",
  "networkType": "ethereum",
  "devdoc": {
    "kind": "dev",
    "methods": {
      "approve(address,uint256)": {
        "details": "See {IERC721-approve}."
      },
      "balanceOf(address)": {
        "details": "See {IERC721-balanceOf}."
      },
      "getApproved(uint256)": {
        "details": "See {IERC721-getApproved}."
      },
      "isApprovedForAll(address,address)": {
        "details": "See {IERC721-isApprovedForAll}."
      },
      "name()": {
        "details": "See {IERC721Metadata-name}."
      },
      "owner()": {
        "details": "Returns the address of the current owner."
      },
      "ownerOf(uint256)": {
        "details": "See {IERC721-ownerOf}."
      },
      "renounceOwnership()": {
        "details": "Leaves the contract without owner. It will not be possible to call `onlyOwner` functions anymore. Can only be called by the current owner. NOTE: Renouncing ownership will leave the contract without an owner, thereby removing any functionality that is only available to the owner."
      },
      "safeTransferFrom(address,address,uint256)": {
        "details": "See {IERC721-safeTransferFrom}."
      },
      "safeTransferFrom(address,address,uint256,bytes)": {
        "details": "See {IERC721-safeTransferFrom}."
      },
      "setApprovalForAll(address,bool)": {
        "details": "See {IERC721-setApprovalForAll}."
      },
      "supportsInterface(bytes4)": {
        "details": "See {IERC165-supportsInterface}."
      },
      "symbol()": {
        "details": "See {IERC721Metadata-symbol}."
      },
      "tokenByIndex(uint256)": {
        "details": "See {IERC721Enumerable-tokenByIndex}."
      },
      "tokenOfOwnerByIndex(address,uint256)": {
        "details": "See {IERC721Enumerable-tokenOfOwnerByIndex}."
      },
      "tokenURI(uint256)": {
        "details": "See {IERC721Metadata-tokenURI}."
      },
      "totalSupply()": {
        "details": "See {IERC721Enumerable-totalSupply}."
      },
      "transferFrom(address,address,uint256)": {
        "details": "See {IERC721-transferFrom}."
      },
      "transferOwnership(address)": {
        "details": "Transfers ownership of the contract to a new account (`newOwner`). Can only be called by the current owner."
      }
    },
    "version": 1
  },
  "userdoc": {
    "kind": "user",
    "methods": {},
    "version": 1
  }
}